:100000000C942A000C943F000C943F000C943F0089
:100010000C943F000C943F000C943F000C943F0064
:100020000C943F000C943F000C943F000C943F0054
:100030000C943F000C943F000C943F000C943F0044
:100040000C943F000C943F000C943F000C943F0034
:100050000C943F0011241FBECFE5D8E0DEBFCDBF1A
:1000600010E0A0E6B0E0EEE8F9E002C005900D92E5
:10007000AC36B107D9F70E9441000C94C5040C942A
:100080000000CF93DF93CDB7DEB72E970FB6F8946D
:10009000DEBF0FBECDBF41E050E060E070E081E028
:1000A00090E00E94EA0041E050E061E070E081E011
:1000B00090E00E94EA0041E050E060E070E081E002
:1000C00090E00E94580140E050E061E070E081E083
:1000D00090E00E94580160E070E081E090E00E94B2
:1000E0009E0261E070E081E090E00E949E0280E06C
:1000F00090E0A8ECB2E489839A83AB83BC8320E0D0
:1001000030E04AEF54E469817A818B819C810E94BE
:100110003004DC01CB018D839E83AF83B88720E060
:1001200030E040E85FE36D817E818F8198850E9499
:10013000AA0388232CF481E090E09A8789873FC046
:1001400020E03FEF4FE757E46D817E818F819885F6
:100150000E942B0418164CF520E030E040E251E4F8
:1001600069817A818B819C810E943004DC01CB0102
:10017000BC01CD010E94AF03DC01CB019A878987C6
:100180000FC088EC90E09C878B878B859C850197BE
:10019000F1F79C878B8789859A8501979A8789874C
:1001A00089859A85892B69F714C06D817E818F813D
:1001B00098850E94AF03DC01CB019A8789878985E6
:1001C0009A859E878D878D859E850197F1F79E87FD
:1001D0008D8781CFCF93DF9300D000D000D0CDB7F3
:1001E000DEB79A8389837C836B835E834D838981A9
:1001F0009A8181309105C9F08130910518F00297FC
:1002000039F139C08AE390E02AE330E0F901208136
:10021000422F21E030E00B8002C0220F331F0A94EE
:10022000E2F7242BFC01208339C087E390E027E329
:1002300030E0F9012081422F21E030E00B8002C044
:10024000220F331F0A94E2F7242BFC01208326C0DF
:1002500084E390E024E330E0F9012081422F21E0A3
:1002600030E00B8002C0220F331F0A94E2F7242BE8
:10027000FC01208313C081E390E021E330E0F90129
:100280002081422F21E030E00B8002C0220F331F7B
:100290000A94E2F7242BFC0120830000000026963C
:1002A0000FB6F894DEBF0FBECDBFDF91CF9108959A
:1002B000CF93DF9300D000D000D0CDB7DEB79A83C4
:1002C00089837C836B835E834D8389819A818130AE
:1002D000910591F18130910520F0029709F457C002
:1002E00081C08D819E81892B99F08BE390E02BE377
:1002F00030E0F9012081422F21E030E00B8002C084
:10030000220F331F0A94E2F7242BFC01208395C0AF
:100310008BE390E02BE330E0F9012081422F21E0D4
:1003200030E00B8002C0220F331F0A94E2F72095C1
:100330002423FC01208381C08D819E81892B99F02B
:1003400088E390E028E330E0F9012081422F21E0AA
:1003500030E00B8002C0220F331F0A94E2F7242BF7
:10036000FC0120836AC088E390E028E330E0F901D3
:100370002081422F21E030E00B8002C0220F331F8A
:100380000A94E2F720952423FC01208356C08D8136
:100390009E81892B99F085E390E025E330E0F90117
:1003A0002081422F21E030E00B8002C0220F331F5A
:1003B0000A94E2F7242BFC0120833FC085E390E000
:1003C00025E330E0F9012081422F21E030E00B806D
:1003D00002C0220F331F0A94E2F720952423FC0168
:1003E00020832BC08D819E81892B99F082E390E040
:1003F00022E330E0F9012081422F21E030E00B8040
:1004000002C0220F331F0A94E2F7242BFC01208341
:1004100013C082E390E022E330E0F9012081422F13
:1004200021E030E00B8002C0220F331F0A94E2F774
:1004300020952423FC0120830000000026960FB69F
:10044000F894DEBF0FBECDBFDF91CF910895CF935B
:10045000DF9300D000D0CDB7DEB79A8389837C8349
:100460006B8389819A8181309105E9F08130910512
:1004700018F0029779F145C089E390E0FC01808192
:10048000282F30E081E090E00B8002C0880F991F98
:100490000A94E2F7822393230B8002C095958795F7
:1004A0000A94E2F744C086E390E0FC018081282FA3
:1004B00030E081E090E00B8002C0880F991F0A9421
:1004C000E2F7822393230B8002C0959587950A94C7
:1004D000E2F72DC083E390E0FC018081282F30E01B
:1004E00081E090E00B8002C0880F991F0A94E2F728
:1004F000822393230B8002C0959587950A94E2F797
:1005000016C080E390E0FC018081282F30E081E07C
:1005100090E00B8002C0880F991F0A94E2F78223B3
:1005200093230B8002C0959587950A94E2F70F906C
:100530000F900F900F90DF91CF910895CF93DF939D
:1005400000D000D0CDB7DEB79A8389837C836B83DC
:1005500089819A818130910581F18130910520F066
:10056000029709F457C07FC08BE390E02BE330E0A3
:10057000F9012081422F21E030E00B8002C0220FE0
:10058000331F0A94E2F72427FC01208389E390E0DB
:10059000FC018081282F30E081E090E00B8002C0D8
:1005A000880F991F0A94E2F7822393230B8002C0DD
:1005B000959587950A94E2F77EC088E390E028E35A
:1005C00030E0F9012081622F2B813C81A901477025
:1005D000552721E030E002C0220F331F4A95E2F791
:1005E0002627FC01208386E390E0FC018081282FF0
:1005F00030E081E090E00B8002C0880F991F0A94E0
:10060000E2F7822393230B8002C0959587950A9485
:10061000E2F751C085E390E025E330E0F901208165
:10062000422F21E030E00B8002C0220F331F0A94DA
:10063000E2F72427FC01208383E390E0FC01808122
:10064000282F30E081E090E00B8002C0880F991FD6
:100650000A94E2F7822393230B8002C09595879535
:100660000A94E2F728C082E390E022E330E0F90147
:100670002081422F21E030E00B8002C0220F331F87
:100680000A94E2F72427FC01208380E390E0FC0138
:100690008081282F30E081E090E00B8002C0880F3D
:1006A000991F0A94E2F7822393230B8002C0959549
:1006B00087950A94E2F70F900F900F900F90DF91BB
:1006C000CF910895CF93DF9300D000D0CDB7DEB7A0
:1006D0001C821B821A82198231C029813A81C90188
:1006E000880F991F820F931F880F991F8C599F4F56
:1006F000FC014081518129813A81C901880F991FEC
:10070000820F931F880F991F805A9F4FFC016081B1
:10071000718129813A81C901880F991F820F931F26
:10072000880F991F8E599F4FFC01808191810E94F3
:10073000EA0089819A8101969A83898389819A81C5
:1007400002975CF200000F900F900F900F90DF91D6
:10075000CF9108950E94DE0308F481E008950E947D
:100760000A0488F09F5798F0B92F9927B751B0F035
:10077000E1F0660F771F881F991F1AF0BA95C9F725
:1007800014C0B13091F00E942404B1E008950C949B
:100790002404672F782F8827B85F39F0B93FCCF34E
:1007A000869577956795B395D9F73EF490958095A2
:1007B000709561957F4F8F4F9F4F0895990F000857
:1007C000550FAA0BE0E8FEEF16161706E807F90723
:1007D000C0F012161306E407F50798F0621B730BBE
:1007E000840B950B39F40A2661F0232B242B252B3F
:1007F00021F408950A2609F4A140A6958FEF811DE2
:10080000811D089557FD9058440F551F59F05F3FC3
:1008100071F04795880F97FB991F61F09F3F79F022
:1008200087950895121613061406551FF2CF4695A4
:10083000F1DF08C0161617061806991FF1CF869526
:100840007105610508940895E894BB27662777270A
:10085000CB0197F908950E94DE0308F48FEF089505
:100860000E9443040C94B4040E94A60438F00E9431
:10087000AD0420F0952311F00C949D040C94A30476
:1008800011240C9425040E94020470F3959FC1F377
:10089000950F50E0551F629FF001729FBB27F00D2E
:1008A000B11D639FAA27F00DB11DAA1F649F662783
:1008B000B00DA11D661F829F2227B00DA11D621FD2
:1008C000739FB00DA11D621F839FA00D611D221F8C
:1008D000749F3327A00D611D231F849F600D211D70
:1008E000822F762F6A2F11249F5750409AF0F1F0F3
:1008F00088234AF0EE0FFF1FBB1F661F771F881F5C
:1009000091505040A9F79E3F510580F00C949D04F2
:100910000C9425045F3FE4F3983ED4F386957795D5
:100920006795B795F795E7959F5FC1F7FE2B880F01
:10093000911D9695879597F9089597F99F6780E897
:1009400070E060E008959FEF80EC089500240A9421
:100950001616170618060906089500240A9412169A
:100960001306140605060895092E0394000C11F4CD
:10097000882352F0BB0F40F4BF2B11F460FF04C07A
:0E0980006F5F7F4F8F4F9F4F0895F894FFCF0A
:0C098E0001000000010003000500010052
:00000001FF
